:020000040800F2
:100000000000022001520008B1200008B3200008BF
:10001000B5200008B7200008B92000080000000043
:10002000000000000000000000000000BB200008ED
:10003000BD20000800000000BF200008C12000080B
:100040005152000851520008515200085152000804
:1000500051520008515200085152000851520008F4
:1000600051520008515200085152000851520008E4
:1000700051520008515200085152000851520008D4
:1000800051520008CD20000851520008515200087A
:1000900051520008515200085152000851520008B4
:1000A00051520008515200085152000851520008A4
:1000B0005152000851520008515200085152000894
:1000C0005152000851520008515200085152000884
:1000D0005152000851520008DD200008515200081A
:1000E000ED200008515200085152000851520008FA
:1000F0005152000851520008515200085152000854
:100100005152000851520008515200085152000843
:100110005152000851520008F920000851520008BD
:10012000092100085152000851520008515200089C
:100130005152000800000000000000005152000869
:100140005152000851520008515200085152000803
:1001500051520008515200085152000851520008F3
:1001600051520008515200085152000851520008E3
:10017000515200085152000851520008000000007E
:1001800000000000515200080000000000000000C4
:100190005152000800000000000000005152000809
:1001A00000000000000000000000000051520008A4
:1001B0005152000851520008515200085152000893
:0401C0005152000890
:1001D000034613F8012B002AFBD1181A0138704787
:1001E00001F0FF01102A2BDB10F0070F08D010F8E8
:1001F000013B013A8B422DD010F0070F42B3F6D1EC
:10020000F0B441EA012141EA014122F007047FF004
:1002100000070023F0E80256083C85EA010586EA5B
:10022000010685FA47F5A3FA87F586FA47F6A5FA97
:1002300087F68EB9EED1F0BC01F0FF0102F00702A3
:1002400032B110F8013B013A83EA010313B1F8D14E
:100250000020704701387047002D06BF354603382F
:10026000073815F0010F07D1013015F4807F02BF68
:10027000013015F4C03F0130F0BC0138704700BFB9
:1002800070B54FF0FF0C4CF4E06C1CEA11541DBF2C
:100290001CEA135594EA0C0F95EA0C0F00F0DEF8F7
:1002A0002C4481EA030621EA4C5123EA4C5350EADC
:1002B000013518BF52EA033541F4801143F480132D
:1002C00038D0A0FB02CE4FF00005E1FB02E506F0BE
:1002D0000042E0FB03E54FF00006E1FB03569CF013
:1002E000000F18BF4EF0010EA4F1FF04B6F5007F19
:1002F00064F5407404D25FEA4E0E6D4146EB06068B
:1003000042EAC62141EA55514FEAC52040EA5E5013
:100310004FEACE2EB4F1FD0C88BFBCF5E06F1ED8BD
:10032000BEF1004F08BF5FEA500E50F1000041EBF4
:10033000045170BD06F0004646EA010140EA0200A1
:1003400081EA0301B4EB5C04C2BFD4EB0C0541EAC3
:10035000045170BD41F480114FF0000E013C00F3D8
:10036000AB8014F1360FDEBF002001F0004170BDFC
:10037000C4F10004203C35DA0C341BDC04F1140415
:10038000C4F1200500FA05F320FA04F001FA05F2A1
:1003900040EA020001F0004221F0004110EBD3706E
:1003A00021FA04F642EB06015EEA430E08BF20EA9A
:1003B000D37070BDC4F10C04C4F1200500FA04F33D
:1003C00020FA05F001FA04F240EA020001F00041CF
:1003D00010EBD37041F100015EEA430E08BF20EA42
:1003E000D37070BDC4F1200500FA05F24EEA020E8A
:1003F00020FA04F301FA05F243EA020321FA04F0B9
:1004000001F0004121FA04F220EA020000EBD3706F
:100410005EEA430E08BF20EAD37070BD94F0000F6F
:100420000FD101F00046400041EB010111F4801FA3
:1004300008BF013CF7D041EA060195F0000F18BF54
:10044000704703F00046520043EB030313F4801F90
:1004500008BF013DF7D043EA0603704794EA0C0F4A
:100460000CEA135518BF95EA0C0F0CD050EA410660
:1004700018BF52EA4306D1D181EA030101F00041DD
:100480004FF0000070BD50EA410606BF1046194605
:1004900052EA430619D094EA0C0F02D150EA013611
:1004A00013D195EA0C0F05D152EA03361CBF104652
:1004B00019460AD181EA030101F0004141F0FE41F1
:1004C00041F470014FF0000070BD41F0FE4141F475
:1004D000780170BD81F0004102E000BF83F000436D
:1004E00030B54FEA41044FEA430594EA050F08BFCF
:1004F00090EA020F1FBF54EA000C55EA020C7FEA93
:10050000645C7FEA655C00F0E2804FEA5454D4EB0F
:100510005555B8BF6D420CDD2C4480EA020281EAD9
:10052000030382EA000083EA010180EA020281EA11
:100530000303362D88BF30BD11F0004F4FEA013163
:100540004FF4801C4CEA113102D0404261EB410172
:1005500013F0004F4FEA03334CEA133302D05242F8
:1005600063EB430394EA050F00F0A780A4F10104B4
:10057000D5F1200E0DDB02FA0EFC22FA05F28018EE
:1005800041F1000103FA0EF2801843FA05F35941D4
:100590000EE0A5F120050EF1200E012A03FA0EFC53
:1005A00028BF4CF0020C43FA05F3C01851EBE3717D
:1005B00001F0004507D54FF0000EDCF1000C7EEB9A
:1005C00000006EEB0101B1F5801F1BD3B1F5001FD8
:1005D0000CD349085FEA30004FEA3C0C04F10104F7
:1005E0004FEA445212F5800F80F09A80BCF1004F20
:1005F00008BF5FEA500C50F1000041EB045141EAA2
:10060000050130BD5FEA4C0C404141EB0101013C6A
:1006100028BFB1F5801FE9D291F0000F04BF014659
:100620000020B1FA81F308BF2033A3F10B03B3F12B
:1006300020020CDA0C3208DD02F1140CC2F10C02BB
:1006400001FA0CF021FA02F10CE002F11402D8BF19
:10065000C2F1200C01FA02F120FA0CFCDCBF41EAE5
:100660000C019040E41AA2BF01EB0451294330BDB4
:100670006FEA04041F3C1CDA0C340EDC04F1140491
:10068000C4F1200220FA04F001FA02F340EA030068
:1006900021FA04F345EA030130BDC4F10C04C4F1AE
:1006A000200220FA02F001FA04F340EA030029468E
:1006B00030BD21FA04F0294630BD94F0000F83F4D8
:1006C000801306BF81F480110134013D4EE77FEABB
:1006D000645C18BF7FEA655C29D094EA050F08BF07
:1006E00090EA020F05D054EA000C04BF19461046E8
:1006F00030BD91EA030F1EBF0021002030BD5FEA2C
:10070000545C05D14000494128BF41F0004130BD53
:1007100014F580043CBF01F5801130BD01F00045A7
:1007200045F0FE4141F470014FF0000030BD7FEA1A
:10073000645C1ABF194610467FEA655C1CBF0B4615
:10074000024650EA013406BF52EA033591EA030F2C
:1007500041F4002130BD00BF90F0000F04BF002124
:10076000704730B54FF4806404F132044FF0000557
:100770004FF0000150E700BF90F0000F04BF0021D0
:10078000704730B54FF4806404F1320410F0004536
:1007900048BF40424FF000013EE700BF42004FEA31
:1007A000E2014FEA31014FEA02701FBF12F07F43AE
:1007B00093F07F4F81F06051704732F07F4208BF65
:1007C000704793F07F4F04BF41F40021704730B56C
:1007D0004FF4607401F0004521F000411CE700BFB8
:1007E00050EA010208BF704730B54FF000050AE03B
:1007F00050EA010208BF704730B511F0004502D53C
:10080000404261EB41014FF4806404F132045FEA3D
:10081000915C3FF4D8AE4FF003025FEADC0C18BFE6
:1008200003325FEADC0C18BF033202EBDC02C2F1D8
:10083000200300FA03FC20FA02F001FA03FE40EA6A
:100840000E0021FA02F11444BDE600BF4FEA410256
:1008500012F5001215D211D56FF47873B3EB625212
:1008600012D94FEAC12343F0004343EA505311F039
:10087000004F23FA02F018BF404270474FF00000CB
:10088000704750EA013005D111F0004008BF6FF009
:10089000004070474FF00000704700BF53B94AB99D
:1008A000002908BF00281CBF4FF0FF314FF0FF3078
:1008B00000F00CB8ADF1080C6DE904CE05F068F954
:1008C000DDF804E0DDE9022304B07047704700BFA3
:1008D00010B5054C237833B9044B13B10448AFF37A
:1008E00000800123237010BD0404002000000000DC
:1008F0004C5E000808B5034B1BB103490348AFF336
:10090000008008BD00000000080400204C5E0008C4
:1009100000B585B0002300930193029303931C4814
:100920001C4A02604FF480324260836001220261FF
:10093000027680F82030C36217498162C3600221C9
:10094000C16180F83020436101F008FFB0B9002395
:100950000093012301930723029369460C4802F098
:1009600043F870B9012300930223019369460848B4
:1009700002F03AF840B905B05DF804FB00F026FD3E
:10098000E5E700F023FDEDE700F020FDF3E700BF11
:1009900080040020002001400100000F30B589B024
:1009A000002303930493059306930793026803F1CE
:1009B000804303F590339A4201D009B030BD04461C
:1009C0000025019503F58C335A6C42F480725A6409
:1009D0005A6C02F480720192019A02951A6B42F0ED
:1009E00001021A631B6B03F001030293029B0323B2
:1009F0000393049303A9104802F0BEFB0F48104B69
:100A0000036045608560C5604FF4806303614FF407
:100A1000006343614FF4005383614FF48073C361FB
:100A20000562456202F0C2F918B9044BA3639C63E6
:100A3000C3E700F0CBFCF8E70000024020040020F0
:100A40001064024008B50068C368984708BD08B53F
:100A500000680369984708BD0D4B1B780A2B14D01A
:100A600010B5044603F1010C094880F800C003EBFF
:100A70008303084800EB8300206000F035F8064B44
:100A80006360064BA360002010BD0120704700BFCB
:100A9000C8040020CC040020450A00084F0A0008C2
:100AA0000346C0780122DA70704710B50446018908
:100AB000406802F051FC23885B009BB223801843FE
:100AC00080B22080A37823B138B90023E370A370EB
:100AD00003E04FF6FF73984200D010BD0223E3708D
:100AE0000123A370F9E700000346002018809870E6
:100AF0004FF0010C83F803C059601A81024ADA6092
:100B0000024A1A61704700BFAB0A0008A10A000838
:100B100010B582B000240094124B1A6B42F480028C
:100B20001A631A6B02F480020092009A01941A6B05
:100B300042F400121A631B6B03F400130193019B30
:100B400022462146112002F079F8112002F086F8A1
:100B500022462146382002F071F8382002F07EF853
:100B600002B010BD00380240F0B589B000240394F3
:100B700004940594069407940094364B1A6B42F043
:100B800004021A631A6B02F004020092009A0194A4
:100B90001A6B42F001021A631A6B02F00102019211
:100BA000019A02941A6B42F002021A631B6B03F063
:100BB00002030293029B284D22464FF4E861284627
:100BC00002F0D1FB254E2246C021304602F0CBFB7D
:100BD00042F2030303930494059403A9304602F000
:100BE000CBFA41F2100303930494059403A9284619
:100BF00002F0C2FA4FF4E8630393012704970594C7
:100C0000069403A9284602F0B7FA039704940594C2
:100C100003A9134802F0B0FAC02303930497059484
:100C2000069403A9304602F0A7FA4FF40063039339
:100C30004FF488130493059403A9284602F09CFA04
:100C400022462146282001F0F9FF282002F006F86C
:100C500009B0F0BD00380240000002400008024028
:100C60000004024010B50446006843689847606875
:100C700043689847A06843689847E0684368984786
:100C800020694368984710BD10B504460068836822
:100C90009847022817D060688368984702280FD0C9
:100CA000A0688368984702280FD0E0688368984757
:100CB00002280CD0206983689847022801D00020C0
:100CC00010BD0520FCE70120FAE70320F8E7042027
:100CD000F6E7000070B50446154D10221549284668
:100CE000FFF7BAFE2560144D012214492846FFF78C
:100CF000B3FE6560124D134E022229463046FFF7BF
:100D0000ABFEA660104E012229463046FFF7A4FE36
:100D1000E6600E4E4FF4005229463046FFF79CFE27
:100D200026610B4BA3610B4B6361002070BD00BFBC
:100D3000C405002000000240B80500200004024065
:100D400000080240AC050020A0050020940500200A
:100D5000890C0008650C000808B502464FF4807144
:100D6000014802F000FB08BD0000024008B580F019
:100D700001024021014802F0F6FA08BD00080240D5
:100D800000B583B08DF807000020FFF7E5FF0120D4
:100D9000FFF7ECFF01231A460DF10701044802F0AA
:100DA000CCFF0020FFF7E2FF03B05DF804FB00BFBB
:100DB0003008002000B583B08DF807000120FFF750
:100DC000CBFF0120FFF7D2FF01231A460DF10701E7
:100DD000044802F0B2FF0020FFF7C8FF03B05DF83F
:100DE00004FB00BF3008002010B50020FFF7BEFF55
:100DF000084C00224021204602F0B5FA012001F003
:100E0000FFFB01224021204602F0ADFA0120FFF74E
:100E1000ADFF10BD000002403F2800D9704710B55B
:100E200004468120FFF7ACFF2046FFF7A9FF10BD65
:100E300010F0800F18D11F2916D810B452B10B4CE6
:100E400054F8203001228A40134344F820305DF8E2
:100E5000044B7047054C54F8203001228A4023EAA5
:100E6000020344F82030F2E7704700BFD0050020AD
:100E7000002305E0044A002142F823100133DBB2CD
:100E800013F0800FF6D07047D005002008B5FFF7AB
:100E9000EFFFFFF7A9FFA020FFF772FFAE20FFF7DB
:100EA0006FFFC820FFF76CFFA220FFF769FF2F201C
:100EB000FFF766FF2120FFF763FF2820FFF7ACFF55
:100EC000AF20FFF75DFF08BD2DE9F84F8246894648
:100ED0001E469DF828B0203A5FFA82F8002526E0E9
:100EE00005EB090104EB0A005A46C9B2C0B2FFF78C
:100EF0009FFF0134E4B2124B03EB46035B78A3423D
:100F000013D907FB08530F4A32F81330234113F06B
:100F1000010FE5D005EB090104EB0A008BF001029B
:100F2000C9B2C0B2FFF784FFE3E70135EDB2044B6D
:100F300013F81670AF4201D90024DCE7BDE8F88F42
:100F4000645E0008685E00082DE9F04182B08046CA
:100F50000E4614469DF820701D4683B102B0BDE8D0
:100F6000F08100972B4631464046FFF7ADFF064B18
:100F700003EB4503587840445FFA80F80134227847
:100F8000002AEED1EAE700BF645E000838B500250C
:100F90000CE00E4B03EB8403585DFFF70BFF0134AD
:100FA000E4B214F0800FF4D00135EDB2032D0CD86B
:100FB000A5F15000C0B2FFF7E3FE1020FFF7E0FEFE
:100FC0000020FFF7DDFE0024EBE738BDD005002050
:100FD0002DE9F0410446884616461F460D460BE0B3
:100FE000012229462046FFF723FF012229463046E9
:100FF000FFF71EFF0135EDB2BD42F1D90BE0012232
:1010000039462046FFF714FF012241462046FFF7EC
:101010000FFF0134E4B2B442F1D9BDE8F0812DE90B
:10102000F04107460D46164698460AE00122294639
:101030002046FFF7FDFE0134E4B2B442F6D9013593
:10104000EDB2454501D83C46F7E7BDE8F081000028
:101050002DE9F8438146884616461F46002523E0C1
:1010600005EB080104EB09003A46C9B2C0B2FFF72C
:10107000DFFE0134E4B2052C14D805EBC6030D4A9B
:1010800032F813C04CFA04FC1CF0010FE8D005EB59
:10109000080104EB090087F00102C9B2C0B2FFF7F2
:1010A000C7FEE6E70135EDB2072D01D80024E2E7DF
:1010B000BDE8F8836865000810B513460C4A14684B
:1010C000013414600C2C06D00A4A127862B1032253
:1010D000FFF7BEFF10BD074C227882F0010222709C
:1010E000034A00241460EFE70222FFF7B1FFF1E7A3
:1010F000D4070020D007002030B583B00546FFF7A5
:10110000B7FE002211467820FFF7D6FF0023012208
:1011100019461846FFF79CFF0024009423462A68CE
:1011200021460E20FFF710FF1F237F2208212046B3
:10113000FFF74EFF054B1B681BB1054A1168287A63
:101140009847FFF723FF03B030BD00BFDC07002046
:10115000D8070020F0B589B0064600230293039318
:10116000049305930693ADF81C30027C437C991CD4
:101170008A4207DD013343743779022F00D90327F0
:10118000002415E09A42F7D2013B4374F4E73E2372
:101190001268114902A804F05DF80134E4B2E100DC
:1011A0000095002302AA01F0F8010220FFF7CCFE0F
:1011B000A7420ED9B268737C234452F82320317CB5
:1011C0008B4214BF002501251379012BDFD020238A
:1011D000DEE709B0F0BD00BFA865000838B50379A7
:1011E000032B18D9023B1B2595FBF3F5EDB2447C8C
:1011F00014FB05F4E4B20234E4B21F237F22002181
:101200007920FFF7E5FE2B19DBB27D2221467B20FA
:10121000FFF705FF38BD02241B25EEE710B582B0AD
:101220000446FFF725FE00231A4619461846FFF725
:101230000FFF002100910B4622680E20FFF784FE6D
:101240002046FFF787FF2046FFF7C8FFFFF79EFE07
:1012500002B010BD18B1024A10600022C26070478F
:10126000E4070020024B1860024B1960704700BF72
:10127000DC070020D807002008B5084B186840B1EB
:10128000074B1B7833B18368027C53F82200FFF7C9
:1012900033FF08BDFFF7C2FFFBE700BFE4070020F4
:1012A000E00700202C4A1268002A4CD010B50346F3
:1012B0009168107C51F820402849097841B1052BEC
:1012C00001D0002010BD254B00221A700120F9E743
:1012D000013B042B39D8DFE803F00C121A2B030072
:1012E00023790BB10020EDE71C4B01221A70207A04
:1012F000E8E70028E6D0013810740020E2E713790F
:10130000013B984223DA013010740020DAE7D368F9
:10131000FBB1114A136000224FF40071104802F033
:1013200022F8012280210F4802F01DF80020C9E7B1
:101330002379012B01D00020C4E7A36806490B6084
:10134000DA600020BEE7002070470020BAE70020E6
:10135000B8E70020B6E700BFE4070020E007002060
:101360000000024000080240B0F5006F00D0704756
:10137000024A938801339380F9E700BFEC0700200D
:10138000064A136801331360054A1368013313607A
:10139000044A136801331360704700BF1808002027
:1013A0001408002010080020064B834200D070472C
:1013B000054A9388C3EB03135B00D380002393801B
:1013C000F5E700BF8C080020EC07002072B6FEE7AE
:1013D00000B595B03422002107A803F05BFF00237D
:1013E000029303930493059306930093224A116C8E
:1013F00041F080511164126C02F080520092009A08
:1014000001931E4A116841F440411160126802F4D0
:1014100040420192019A0222079201210A91102171
:101420000B910D920E9308230F93B42310931192F6
:101430001292139207A802F05BF9B0B901F0B0FF65
:10144000A8B90F23029302230393002304934FF4BC
:10145000A05305934FF480530693052102A801F091
:10146000DDFF30B915B05DF804FBFFF7AFFFFFF704
:10147000ADFFFFF7ABFF00BF003802400070004037
:10148000F0B589B001F090F8FFF7A2FF02F076F80E
:101490004D4BA3FB0030800901F0E4FB042001F078
:1014A000F5FB002211464FF0FF3001F0C7FBFFF7BC
:1014B0005BFBFFF72DFB00F05DFEFFF729FA00F064
:1014C000D5FF00F07FFD00F083FF00F029FFFFF75C
:1014D000DDFC3E4D0024EC812C740523AB813C489F
:1014E000FFF7B8FE01A8FFF7F5FB022229463948AD
:1014F00001F060F929463848FFF7B4FE374802F09A
:10150000C1FD22464FF40071354801F02CFF012245
:101510008021344801F027FF00F022FC09E0324B23
:1015200000221A6001A8069B9847304B1B68132BBA
:1015300004DC2D4B1B68002BF1DCF6E72B4B002263
:101540001A60224B9B8903EB8301294A1268B2EB94
:10155000810F0FDB002226490A601C4E254D298889
:10156000B1FBF3F1718224480188B1FBF3F3B3823C
:101570002A800280154F3B881E4A11880B44138035
:101580007B881D4A11880B44138001A8079B98474C
:101590000646FFF787FE0546FFF76EFE3A462146F0
:1015A000304600F025FC012D05D13946204600F0DB
:1015B0003BFB0024BDE70549284600F0B9FA002DA1
:1015C000B7D02C46B5E700BFD34D6210EC07002022
:1015D00000000020800400207D1A00088C080020F4
:1015E00000000240000802401408002018080020F3
:1015F00010080020EA070020E807002038B505465B
:101600000C46264B1B680BB9012808D0244B1B68DD
:10161000372B03DC234A1268012A0BD038BD204B3C
:1016200000221A6000F0E6FF1F4B18601D4B0122DC
:101630001A60EBE71D4802681D4951F82330D36258
:10164000082103F077F800F0D5FF154B1A68194B05
:1016500053F82230144A1268134423443233984218
:1016600002D80E4B1D60D9E70821104803F0E4F8BA
:1016700000F0C0FF0A4B1A680E4B53F822300A499B
:1016800009680B44E11864318842EAD90132044BFD
:101690001A6000F0AFFF044B1860E2E72408002056
:1016A000200800201C080020280800201C09002019
:1016B000C8020020E801002070B596B00C46023840
:1016C000122800F22581DFE810F013002301230126
:1016D00020002301C2002301230123012301230150
:1016E0002301230123018701A5013B007C00D000D9
:1016F0009B4A9C490EA803F0ADFD002300930EAA5F
:101700000A211420FFF720FC02E1964C964A21465C
:101710000EA803F09FFD954A214606A803F09AFD06
:101720000024009423460EAA0A210220FFF70CFC95
:101730000094234606AA14210220FFF705FCE7E0E7
:101740000888FFF709F80022894BFEF799FD00226F
:10175000884BFEF795FDFFF779F82081864B0EAD9B
:101760000FCB07C525F8023B1B0C2B700023009301
:101770000EAA0A210846FFF7E7FB638840F21352DE
:10178000934210D9B3F52F6F14D97C4B22897C4931
:1017900006A803F05FFD0023009306AA14210A2087
:1017A000FFF7D2FBB4E0774B2289754906A803F016
:1017B00051FDF0E7744B2289714906A803F04AFDF8
:1017C000E9E70E883046FEF7C7FF0022684BFEF7B8
:1017D00057FD0022674BFEF753FDFFF737F82081D6
:1017E0000DF1380C694D0FCDACE80F002B682CF8CB
:1017F000023B1B0C8CF8003040F213539E4218D968
:10180000B6F52F6F1CD95D4B22895D4906A803F000
:1018100021FD0024009423460EAA0A210846FFF762
:1018200093FB0094234606AA14210A20FFF78CFBA1
:101830006EE0544B2289524906A803F00BFDE8E7FD
:10184000514B22894E4906A803F004FDE1E74B887D
:101850000A884F490EA803F0FDFC002300930EAA4E
:101860000A210846FFF770FB52E04888FEF774FF34
:1018700000223F4BFEF704FD00223E4BFEF700FD29
:10188000FEF7E4FF6081E389BBB1E3880193414B3C
:101890000093638A404A41490EA803F0DBFC002311
:1018A00000930EAA0A210120FFF74EFB237C032B95
:1018B00016D8DFE803F0102F3B35E388384A394962
:1018C0000EA803F0C7FC002300930EAA0A210846C5
:1018D000FFF73AFBEAE7344A344903A803F0BAFCBD
:1018E00063891D2B28D9462B30D9314A01920093A8
:1018F000304B03AA304906A803F0ACFC0023009348
:1019000006AA14210520FFF71FFBE08800F00EFB5C
:1019100016B070BD294A254903A803F09BFCDFE7F8
:10192000274A224903A803F095FCD9E7254A1F4915
:1019300003A803F08FFCD3E7234A01920093234BC3
:1019400003AA1D4906A803F085FCD7E7204A0192A7
:101950000093204B03AA184906A803F07BFCCDE7AF
:101960003867000844670008486700085C6700089B
:101970000000303F0000594070670008946700087D
:101980008C67000880670008A0670008AC67000843
:10199000C0670008E4670008CC670008D467000847
:1019A000EC670008F867000800680008086800088D
:1019B00044680008406800082C68000810680008A7
:1019C00018680008206800083C68000828680008BB
:1019D000506800084C680008214B00938B89214A0D
:1019E00021490EA803F036FC06AC204D0FCD0FC4E4
:1019F0002B6823600024009423460EAA0A210120AC
:101A0000FFF7A2FA0094234606AA14210120FFF74B
:101A10009BFA7DE70DF1380C154D0FCDACE80F00AA
:101A200095E803004CF8040BACF800100023009379
:101A30000EAA0A210120FFF787FAE3893BB10023B0
:101A400000930C4A14213820FFF77EFA60E7002348
:101A50000093094A14212220FFF776FA58E700BFC5
:101A6000A8680008546800086468000870680008E6
:101A7000846800089C680008A468000838B504461B
:101A80000D46831E122B0ED8DFE803F00A0D0D0E53
:101A90000D340D0D0D0D0D0D0D0D43471E26380097
:101AA000C0B2FFF709FE38BD01224FF400711D4896
:101AB00001F059FC002280211B4801F054FC29460A
:101AC000E0B2FFF7F9FDEEE7084600F061FA2946BB
:101AD000E0B2FFF7F1FDE6E7144B1B680A889A6253
:101AE0006FF031010020FFF789FD2946E0B2FFF7D2
:101AF000E3FDD8E7C0B2FFF7DFFDD4E7084600F00A
:101B0000B1F92946E0B2FFF7D7FDE88800F00EFAF8
:101B1000C9E7C0B2FFF7D0FDC5E7C0B2FFF7CCFD03
:101B2000C1E700BF00000240000802401C0900207D
:101B300010B5033811280ED8DFE800F0090E0D0D9E
:101B4000350D0D0D0D0D0D0D0D5662142441802126
:101B5000314801F00EFC10BD4FF400712F4801F028
:101B600008FCF8E708212E4802F0ACFE01224FF4F1
:101B700000712A4801F0F7FB00228021264801F07D
:101B8000F2FBE8E76FF031010120FFF737FD01229A
:101B90004FF40071214801F0E6FB002280211E482D
:101BA00001F0E1FBD7E701224FF400711B4801F07F
:101BB000DAFB00228021184801F0D5FBCBE7194C55
:101BC0000021204602F07EFE0421204602F07AFE2B
:101BD00001224FF40071114801F0C5FB0122802160
:101BE0000D4801F0C0FBB6E701224FF400710B482D
:101BF00001F0B9FB00228021074801F0B4FBAAE7FD
:101C000001224FF40071054801F0ADFB0022802154
:101C1000014801F0A8FB9EE70008024000000240D6
:101C20001C090020D408002038B505380F281ED81C
:101C3000DFE800F034404C1D1D1D1D1D1D1D1D74D1
:101C400080081E5800224FF48061404801F08BFB51
:101C500008213F4802F0B8FE00224FF400713D48D1
:101C600001F081FB012280213B4801F07CFB38BD63
:101C700000224FF48061354801F075FB082134489B
:101C800002F0A2FE00224FF40071324801F06BFB1B
:101C900001228021304801F066FBE8E700224FF482
:101CA00000712C4801F05FFB012280212A4801F0DD
:101CB0005AFBDCE700224FF40071264801F053FB89
:101CC00001228021244801F04EFBD0E700224FF48E
:101CD0000071204801F047FB012280211E4801F0DD
:101CE00042FBC4E71B4C00224FF48061204601F008
:101CF0003AFB1A4D0021284602F066FE04212846D0
:101D000002F062FE00224FF40071204601F02BFB2E
:101D100001228021104801F026FBA8E700224FF4A1
:101D200000710C4801F01FFB012280210A4801F0DC
:101D30001AFB9CE700224FF40071064801F013FBE8
:101D400001228021044801F00EFB90E700040240CC
:101D50001C0900200000024000080240D4080020B6
:101D600030B583B01F237F2200210846FFF730F9EA
:101D70000024009423461B4A05212B20FFF7E4F89A
:101D800000942346184A14212620FFF7DDF8FFF7B8
:101D9000FDF84FF42F7000F033FC144D00942346EF
:101DA0002A4614215520FFF7CFF8FFF7EFF84FF43C
:101DB0002F7000F025FC009423462A4614215A2057
:101DC000FFF7C2F8FFF7E2F8FFF752F81F237F2270
:101DD00021462046FFF7FCF84FF42F7000F010FC6E
:101DE00003B030BDAC680008B8680008E0660008C1
:101DF000142904D0102915D0112928D07047013892
:101E00000328FBD8DFE800F00205080B0223137457
:101E10007047032313747047012313747047002322
:101E200013747047032806D004280AD00228E5D18D
:101E30000523938170479389012BDFD9013B93815F
:101E400070479389132BD9D80133938170470328A6
:101E500002D0042803D070470023D38170470123A8
:101E6000D381CBE710B50446037C032B1CD8DFE8F5
:101E700003F00221424901224FF48061284801F019
:101E800072FAE3898BB1638A264A1168264AA2FB5B
:101E900003235B098B62A38A224A126803F58053ED
:101EA0005B105363536B936310BD1E4B1B68002282
:101EB0009A62F0E701224FF48061194801F053FA69
:101EC000E3899BB1638A174A1168174AA2FB03236F
:101ED0005B098B62A38AC3F58053124A126803EB35
:101EE000D3735B105363536B9363DDE70D4B1B6838
:101EF00000229A62EEE700224FF48061084801F068
:101F000032FAD1E701224FF48061054801F02BFA43
:101F1000044B1B684FF480525A6300229A63C3E754
:101F200000000240D40800201F85EB5170B59CB022
:101F30000546134E33680133336001F025FB44003E
:101F4000104B1B689A6ADB6A013302FB0333B4FB54
:101F5000F3F4366800F04EFB03460195A4B20094FA
:101F60003246094903A803F075F903A8FEF730F9D2
:101F70000A2382B203A9054802F00DFF1CB070BD10
:101F80002C080020D4080020C4680008C4090020E0
:101F900010B5044601224FF48061074801F0E3F9CF
:101FA0006388064A12685B00936223880449A1FB98
:101FB0000313DB09D36310BD000402401C09002099
:101FC000FF04EC4F08B50E480E4B03604FF48273CC
:101FD000436000238360C360036143614FF4007278
:101FE00082611022C2610362436283620A23C36278
:101FF00001F044FE00B908BDFFF7E8F9FBE700BFB8
:10200000300800200030014000B589B00023039360
:1020100004930593069307930268154B9A4202D0E6
:1020200009B05DF804FB0021019103F584335A6C7B
:1020300042F480525A645A6C02F480520192019A1E
:1020400002911A6B42F001021A631B6B03F0010349
:102050000293029BA023039302230493032306937A
:102060000523079303A9034801F086F8D8E700BFCA
:10207000003001400000024082B0002100910B4B73
:102080005A6C42F480425A645A6C02F480420092C4
:10209000009A01911A6C42F080521A641B6C03F092
:1020A00080530193019B02B0704700BF003802408B
:1020B000FEE7FEE7FEE7FEE7FEE770477047704782
:1020C00008B500F08BFA00F0F1FD08BD08B5024834
:1020D00000F064FF08BD00BF6409002008B5024895
:1020E00002F04CFF08BD00BFC409002008B54FF442
:1020F000006001F047F908BD08B5024802F00BF88E
:1021000008BD00BF8C08002008B5024800F046FF5B
:1021100008BD00BF2004002010B503460C4A0D493D
:102120000D48006840B10C4800680344521A9342BD
:1021300006D8094A136010BD0748084C0460F2E74E
:1021400003F0B0F80C2303604FF0FF30F3E700BF5B
:10215000000002200004000088080020580B002026
:10216000034AD2F8883043F47003C2F888307047CD
:1021700000ED00E000B583B00023009301930F4809
:102180000F4A026042F228324260836042F21072CB
:10219000C260836102F0DAF850B900230093019322
:1021A0006946064802F056FC28B903B05DF804FB06
:1021B000FFF70CF9F1E7FFF709F9F6E78C080020C3
:1021C0000010004000B589B00023039304930593E9
:1021D000069307930368B3F1804F05D01E4A9342DC
:1021E00025D009B05DF804FB0021009103F50E3302
:1021F0001A6C42F001021A641A6C02F00102009299
:10220000009A01911A6B42F002021A631B6B03F0F1
:1022100002030193019B4FF4807303930223049301
:102220000123079303A90D4800F0A6FFD9E7002179
:1022300002910B4B1A6C42F010021A641B6C03F0F3
:1022400010030293029B0A46362000F0F7FC36206A
:1022500000F004FDC5E700BF00100040000402408C
:10226000003802400268094B9A4200D0704782B0A1
:1022700000230193064B1A6C42F002021A641B6C95
:1022800003F002030193019B02B070470004004079
:102290000038024000B589B00023039304930593EE
:1022A000069307930368B3F1804F05D0194A934210
:1022B0001AD009B05DF804FB00230193164B1A6B8A
:1022C00042F002021A631B6B03F002030193019BAD
:1022D0004FF480630393022304930123079303A91C
:1022E0000E4800F049FFE4E7002302930A4B1A6B03
:1022F00042F002021A631B6B03F002030293029B7B
:102300003023039302230493079303A9034800F0A7
:1023100033FFCEE7000400400038024000040240D2
:1023200000B58FB000230A930B930C930D93089381
:1023300009930193029303930493059306930793E0
:1023400022484FF08042026040F6FB2242608360E8
:1023500040F2F312C26003618023836101F0F6FF53
:1023600028BB4FF480530A930AA9184802F054F985
:1023700000BB164802F016F8F8B900230893099339
:1023800008A9124802F066FBD0B93023019300235C
:10239000029303930593082201A90C4802F092F8D6
:1023A00088B90A48FFF776FF0FB05DF804FBFFF726
:1023B0000DF8D6E7FFF70AF8DBE7FFF707F8DCE7E9
:1023C000FFF704F8E1E7FFF701F8EAE71C0900204E
:1023D00000B58BB0002308930993019302930393F4
:1023E00004930593069307931E481F4A02604360B7
:1023F0001022826040F6FF72C2600361836101F0C7
:10240000FDFF18BB00230893099308A9154802F0A3
:1024100021FBF0B96023019340F2FF730293002285
:102420000392059201A90F4802F07BF8A0B902239C
:10243000039304220DEB02010A4802F072F870B90E
:102440000848FFF727FF0BB05DF804FBFEF7BEFF5F
:10245000D8E7FEF7BBFFDDE7FEF7B8FFE7E7FEF7DB
:10246000B5FFEDE7D40800200004004008B50A4895
:102470000A4B03604FF4E133436000238360C36081
:1024800003610C2242618361C36102F054FC00B914
:1024900008BDFEF79BFFFBE7C40900200044004095
:1024A00030B589B0002303930493059306930793F3
:1024B0000268264B9A4201D009B030BD044600257F
:1024C000019503F5FA331A6C42F400321A641A6C5F
:1024D00002F400320192019A02951A6B42F0010255
:1024E0001A631B6B03F001030293029B0C230393FB
:1024F00002230493032306930723079303A9144895
:1025000000F03AFE1348144B03604FF00063436041
:1025100040238360C5604FF480630361456185613A
:10252000C5610562456200F041FC58B9094BA363DF
:102530009C6300221146262000F080FB262000F03C
:102540008DFBB9E7FEF742FFF0E700BF0044004013
:102550000000024064090020A060024010B504465B
:102560000E4B1A784FF47A73B3FBF2F30C4A1068EF
:10257000B0FBF3F000F076FB68B90F2C01D9012015
:102580000AE0002221464FF0FF3000F057FB054BD8
:102590001C60002000E0012010BD00BFAC03002043
:1025A000A8030020B003002008B50B4B1A6842F4C2
:1025B00000721A601A6842F480621A601A6842F463
:1025C00080721A60032000F027FB0F20FFF7C6FF80
:1025D000FFF752FD002008BD003C0240034A11688D
:1025E000034B1B780B441360704700BF0C0A00209C
:1025F000AC030020014B1868704700BF0C0A002094
:1026000038B50446FFF7F6FF0546B4F1FF3F02D0A8
:10261000044B1B781C44FFF7EDFF401BA042FAD38C
:1026200038BD00BFAC0300204A4B5A6822F4403248
:102630005A605A6841680A435A600268536823F432
:102640008073536002685368016943EA0123536051
:102650000268536823F040735360026853688168CE
:102660000B4353600268936823F40063936002682D
:102670009368C1680B439360826A374B9A4257D084
:102680000268936823F07063936002689368816ABC
:102690000B4393600268936823F040539360026891
:1026A0009368C16A0B4393600268936823F0020346
:1026B000936002689368017E43EA4103936090F857
:1026C0002030002B3FD00268536843F4006353600E
:1026D0000268536823F46043536001684B68426AA0
:1026E000013A43EA42334B600268D36A23F4700331
:1026F000D3620168CB6AC269013A43EA0253CB62F2
:102700000268936823F4007393600268936890F8FA
:10271000301043EA412393600268936823F4806396
:10272000936002689368416943EA8123936070472C
:102730000268936823F0706393600268936823F0E3
:1027400040539360B0E70268536823F4006353601A
:10275000CAE700BF002301400100000F38B310B5E5
:102760000446036C43B1236C13F0100F0BD001200F
:10277000002384F83C3010BDFEF710F90023636499
:1027800084F83C30EFE7236C23F4885323F00203F2
:1027900043F0020323642046FFF746FF00206064F5
:1027A000236C23F0030343F001032364E0E70120DB
:1027B0007047000010B582B013460022019290F8D5
:1027C0003C20012A00F0AE800446012280F83C2023
:1027D0000268906810F0010F13D1906840F001007A
:1027E0009060534A1068534AA2FB0020800C00EB13
:1027F0004000019002E00198013801900198002802
:10280000F9D12268906810F4807F03D0906820F49A
:10281000807090602268906810F0010F77D0206C73
:1028200020F4E06020F0010040F4807020645268E1
:1028300012F4806F05D0226C22F4405242F4805290
:102840002264226C12F4805F36D0626C22F00602A1
:102850006264002284F83C20A26B3748D063A26BEC
:1028600036481064A26B3648D06422686FF02200AC
:1028700010602068426842F080624260206882688E
:1028800042F48072826020680A4600F14C01A06B1D
:1028900000F0F2FA2B4B5B6813F01F0F27D123686F
:1028A000294A934211D002F58072934207D0274AF9
:1028B000934214D0002033E000226264C9E702F59D
:1028C0000072526812F01F0FF1D19A6812F0405F47
:1028D0002AD19A6842F080429A60002020E002F5F6
:1028E0008072526812F0100FEFD0002018E02368B9
:1028F000154A934201D0002012E09A6812F0405F1E
:1029000014D19A6842F080429A60002008E0236C5B
:1029100043F010032364636C43F0010363640020FD
:1029200002B010BD0220FBE70020F9E70020F7E726
:10293000A803002083DE1B437729000855290008DF
:1029400061290008002301400020014000220140CD
:102950007047704708B5806BFFF7FBFF08BD7047F5
:1029600008B5806B40230364436C43F00403436465
:10297000FFF7F5FF08BD08B50346806B026C12F047
:10298000500F25D1036C43F40073036403689A6805
:1029900012F0405F19D1027EBAB9DA6A12F4700FF0
:1029A00003D09A6812F4806F0FD15A6822F0200287
:1029B0005A60036C23F480730364036C13F4805F28
:1029C00003D1036C43F001030364FFF7C1FF08BDAB
:1029D000026C12F0100F04D1826BD26C1846904733
:1029E000F5E7FFF7BCFFF2E730B482B000220192B6
:1029F00090F83C20012A00F0C0800346012280F8B4
:102A00003C200A68092A40D90468E06892B202EBC7
:102A100042021E3A4FF0070C0CFA02F220EA0202C0
:102A2000E2601C68E0680A8802EB42021E3A8D6888
:102A300005FA02F20243E2604A68062A3CD81C68A2
:102A4000606B02EB8202053A4FF01F0C0CFA02F2A7
:102A500020EA020262631C68606B4A6802EB820231
:102A6000053AB1F800C00CFA02F20243626318683A
:102A7000434A904250D01868414A904259D00020B1
:102A800083F83C0002B030BC70470468206992B201
:102A900002EB42024FF0070C0CFA02F220EA0202AB
:102AA00022611C6820690A8802EB42028D6805FADF
:102AB00002F202432261BFE70C2A16D81D68286B78
:102AC00002EB8202233A1F2404FA02F220EA0202F5
:102AD0002A631D68286B4A6802EB8202233A0C883D
:102AE00004FA02F202432A63C1E71D68E86A02EBB6
:102AF0008202413A1F2404FA02F220EA0202EA6248
:102B00001D68E86A4A6802EB8202413A0C8804FABE
:102B100002F20243EA62AAE70A68122AABD1194A12
:102B2000506820F400005060506840F4800050600D
:102B3000A1E70A681448824201D0112A9FD1114AA4
:102B4000506820F480005060506840F400005060ED
:102B500009680D4A914292D10C4A12680C49A1FBB6
:102B60000212920C02EB820252000192019A002A98
:102B700085D0019A013A0192F8E7022082E700BF6E
:102B8000002001400023014012000010A803002093
:102B900083DE1B43002807DB00F01F0240090123EE
:102BA0009340024A42F82030704700BF00E100E045
:102BB000002808DB0901C9B200F1604000F561405E
:102BC00080F80013704700F00F000901C9B2014BF3
:102BD0001954704714ED00E000B500F00700C0F193
:102BE000070CBCF1040F28BF4FF0040C031D062B8B
:102BF0000FD9C31E4FF0FF3E0EFA0CF021EA000180
:102C000099400EFA03FE22EA0E0241EA02005DF844
:102C100004FB0023EEE70000074AD36823F4E063D7
:102C20001B041B0C000200F4E060034343F0BF638D
:102C300043F40033D360704700ED00E010B5044664
:102C4000054BD868C0F30220FFF7C6FF01462046B7
:102C5000FFF7AEFF10BD00BF00ED00E008B5FFF7C5
:102C600099FF08BD0138B0F1807F0BD24FF0E0230F
:102C70005861054AF02182F823100020986107224C
:102C80001A6170470120704700ED00E0042806D06B
:102C90004FF0E022136923F00403136170474FF0F3
:102CA000E022136943F004031361704708B5FEF78F
:102CB00067FB08BD30B405682C6824F480242C60C0
:102CC000046863608368402B05D0036899600368DB
:102CD000DA6030BC704703689A600368D960F8E72F
:102CE00010B40368D9B210390A4AA2FB0142120992
:102CF000094CA25CC2655F2907D96FF3090304334D
:102D00008365806D5DF8044B70476FF3090383653D
:102D1000F7E700BFABAAAAAA24690008836A826900
:102D200092B9012B0AD0022B02D00BB100207047C0
:102D3000C36A13F0807F28D100207047C36AB3F1C3
:102D4000C07F24D000207047B2F5005F09D0022B6D
:102D500025D9032B25D1C36A13F0807F23D100200E
:102D60007047032B03D8DFE803F01404140A002093
:102D70007047C36A13F0807F0DD100207047C36A8B
:102D8000B3F1C07F09D000207047012070470120B7
:102D900070470120704701207047012070470120D3
:102DA00070470020704701207047000070B504464E
:102DB000FFF720FC002C5BD00546022384F8353059
:102DC000002384F834302268136823F00103136071
:102DD00023681A6812F0010F0AD0FFF70BFC431B9F
:102DE000052BF5D920236365032084F8350070BDD9
:102DF0001A68204911406268A0680243E0680243F3
:102E00002069024360690243A0690243E06902430A
:102E1000206A02430A43616A04291ED01A602668A8
:102E2000756925F00705636A1D43042B07D1A36A62
:102E30001D43E36A1BB12046FFF770FF90B975612F
:102E40002046FFF74DFFE26D3F2393408360002053
:102E50006065012384F83530C9E7E16A206B0143DE
:102E60000A43DBE740236365012084F83500BEE7B1
:102E70000120BCE73F8010F038B50446856D90F81E
:102E8000340001282BD0012084F8340094F8350058
:102E9000C0B2012804D0002384F83430022038BDA9
:102EA000022084F83500002060652046FFF702FF0D
:102EB000E26D3F239340AB602268136843F0160332
:102EC0001360236C23B12268136843F00803136076
:102ED0002268136843F0010313600020DFE702203B
:102EE000DDE770B50446866DFFF784FB94F8353056
:102EF000DBB2022B06D080236365002384F83430D4
:102F0000012070BD05462268136823F01603136084
:102F10002268536923F080035361236CE3B1226874
:102F2000136823F0080313602268136823F0010379
:102F3000136023681B6813F0010F11D0FFF75AFBD1
:102F4000431B052BF5D920236365032084F8350046
:102F5000002384F83430D4E7A36C002BDFD1E3E7FF
:102F6000E26D3F239340B360012384F835300020A5
:102F700084F83400C5E790F83530DBB2022B03D07B
:102F80008023436501207047052380F835300268AF
:102F9000136823F00103136000207047F0B583B07D
:102FA000044600230193724B1D68724BA3FB053549
:102FB000AD0A876D3E68C26D08239340334210D03E
:102FC00003681A6812F0040F0BD01A6822F004028A
:102FD0001A60C26D08239340BB60436D43F0010348
:102FE0004365E26D01239340334209D02268526960
:102FF00012F0800F04D0BB60636D43F00203636581
:10300000E26D04239340334209D02268126812F023
:10301000020F04D0BB60636D43F004036365E26D8F
:1030200010239340334224D02268126812F0080F14
:103030001FD0BB6023681A6812F4802F0DD01B6864
:1030400013F4002F04D1236C9BB12046984710E065
:10305000A36C73B1204698470BE01A6812F4807F86
:1030600003D11A6822F008021A60236C0BB12046C3
:103070009847E26D20239340334255D0226812686E
:1030800012F0100F50D0BB6094F83530DBB2052B36
:103090000ED023681A6812F4802F33D01B6813F403
:1030A000002F2AD1636C002B3ED0204698473BE08E
:1030B0002268136823F0160313602268536923F013
:1030C00080035361236CA3B12268136823F00803C3
:1030D0001360E26D3F239340BB60012384F83530D9
:1030E000002384F83430236D002B3FD020469847CE
:1030F0003CE0A36C002BE7D1EBE7E36BA3B12046E8
:10310000984711E01A6812F4807F09D11A6822F0FA
:1031100010021A60012384F83530002384F834301B
:10312000E36B0BB120469847636DFBB1636D13F001
:10313000010F17D0052384F835302268136823F077
:1031400001031360019B01330193AB4204D8236850
:103150001B6813F0010FF5D1012384F835300023EB
:1031600084F83430E36C0BB12046984703B0F0BDCF
:10317000A8030020B5814E1B00230F2B00F2E38033
:1031800070B582B065E085684FEA430E032404FA07
:103190000EF425EA0405CC6804FA0EF42C4384608E
:1031A000446824EA02044A68C2F300129A402243A7
:1031B00042605CE0DC08083450F8242003F0070586
:1031C000AD004FF00F0E0EFA05FE22EA0E0E0A6950
:1031D000AA4042EA0E0240F824205CE0062200E009
:1031E000002202FA0EF22A430234574D45F82420F9
:1031F000564A94686FEA0C0224EA0C054E6816F4ED
:10320000801F01D04CEA0405504CA560E46802EA36
:1032100004054E6816F4001F01D04CEA04054B4C1F
:10322000E560646802EA04054E6816F4003F01D0C8
:103230004CEA0405454C6560246822404D6815F44D
:10324000803F01D04CEA0402404C226001330F2B36
:1032500077D801229A400C6804EA020C32EA04048E
:10326000F4D14C6804F00304013C012C8BD94A686A
:1032700002F00302032A09D0C4685D000322AA40B9
:1032800024EA02048A68AA402243C2604A6802F023
:103290000302022A8ED004684FEA430E032202FA88
:1032A0000EF224EA02044A6802F0030202FA0EF265
:1032B000224302604A6812F4403FC7D000220192C4
:1032C000234A546C44F480445464526C02F48042A7
:1032D0000192019A9C08A51C1B4A52F8255003F044
:1032E000030E4FEA8E0E0F2202FA0EF225EA0205B5
:1032F000184A90423FF474AF02F58062904216D0B3
:1033000002F58062904214D002F58062904212D0A1
:1033100002F58062904210D002F5806290420ED099
:1033200002F5806290423FF459AF072259E701222B
:1033300057E7022255E7032253E7042251E705220B
:103340004FE702B070BD704700380140003C0140BB
:1033500000380240000002400369194201D00120F8
:103360007047002070470AB181617047090481618C
:103370007047436901EA030221EA030141EA02417D
:103380008161704708B5054B5B69034200D108BDF8
:10339000024B5861FDF7E8FFF9E700BF003C014030
:1033A00010B582B000230193194B1A6C42F0805281
:1033B0001A641B6C03F080530193019B154B01228F
:1033C0001A64FFF717F90446134B5B6813F4803F48
:1033D00008D1FFF70FF9001BB0F57A7FF4D903206D
:1033E00002B010BD0B4B01225A64FFF703F90446EB
:1033F000094B5B6813F4003F07D1FFF7FBF8001B94
:10340000B0F57A7FF4D90320EAE70020E8E700BFAF
:103410000038024000000E4200700040002800F01A
:103420009B8070B50D4604464F4B1B6803F00F039D
:103430008B4208D2CBB24C4A1370136803F00F03CF
:103440008B4240F08B80236813F0020F17D013F0EB
:10345000040F04D0454A936843F4E0539360236813
:1034600013F0080F04D0414A936843F4604393601B
:103470003E4A936823F0F003A1680B4393602368EE
:1034800013F0010F32D06368012B21D09A1E012A5C
:1034900025D9364A126812F0020F61D033498A6882
:1034A00022F0030213438B60FFF7A4F806462F4B6C
:1034B0009B6803F00C036268B3EB820F16D0FFF732
:1034C00099F8801B41F288339842F0D9032042E0FA
:1034D000264A126812F4003FE0D101203BE0234A63
:1034E000126812F0007FD9D1012034E01E4B1B6816
:1034F00003F00F03AB4207D9EAB21B4B1A701B68EB
:1035000003F00F03AB422DD1236813F0040F06D054
:10351000164A936823F4E053E1680B4393602368F1
:1035200013F0080F07D0114A936823F46043216910
:1035300043EAC103936000F047F80C4B9B68C3F368
:1035400003130B4AD35CD8400A4B18600A4B186827
:10355000FFF704F8002070BD012070470120FAE752
:103560000120F8E70120F6E7003C02400038024065
:1035700014690008A8030020B0030020014B18685C
:10358000704700BFA803002008B5FFF7F7FF044B02
:103590009B68C3F38223034AD35CD84008BD00BFB5
:1035A000003802400C69000808B5FFF7E7FF044B3C
:1035B0009B68C3F34233034AD35CD84008BD00BFC5
:1035C000003802400C69000808B5464B9B6803F0C0
:1035D0000C03082B05D00C2B43D0042B7FD1424881
:1035E00019E0404B5A6802F03F025B6813F4800F09
:1035F00012D03C4B5968C1F388113B480023A1FB12
:103600000001FDF74BF9374B5B68C3F3014301330E
:103610005B00B0FBF3F008BD324B5868C0F3881074
:103620004FEA401CBCEB000C6EEB0E0E4FEA8E1303
:1036300043EA9C634FEA8C11B1EB0C0163EB0E0380
:10364000DB0043EA5173C90011EB000C43F10003A6
:10365000990200234FEA8C2041EA9C51FDF71EF9A4
:10366000D1E7204B5A6802F03F025B6813F4800FE9
:1036700010D01C4B5968C1F388111B480023A1FBD3
:103680000001FDF70BF9174B5B68C3F30273B0FB46
:10369000F3F0C0E7134B5868C0F388104FEA401CA2
:1036A000BCEB000C6EEB0E0E4FEA8E1343EA9C63EC
:1036B0004FEA8C11B1EB0C0163EB0E03DB0043EA24
:1036C0005173C90011EB000C43F100039902002370
:1036D0004FEA8C2041EA9C51FDF7E0F8D3E703481C
:1036E00099E700BF0038024040787D010024F400D3
:1036F000002800F0018270B582B00446036813F020
:10370000010F41D0994B9B6803F00C03042B32D07E
:10371000964B9B6803F00C03082B27D0934B9B68B8
:1037200003F00C030C2B59D06368B3F5803F5BD0DA
:10373000B3F5A02F5ED08D4B1A6822F480321A6048
:103740001A6822F480221A606368002B5CD0FEF7AE
:1037500051FF0546854B1B6813F4003F14D1FEF75B
:1037600049FF401B6428F5D90320CCE17F4B5B68FF
:1037700013F4800FD2D07D4B1B6813F4003F03D0AD
:103780006368002B00F0BA81236813F0020F60D049
:10379000764B9B6813F00C0F4AD0744B9B6803F078
:1037A0000C03082B3FD0714B9B6803F00C030C2BD0
:1037B00069D0E368002B75D06D4B01221A60FEF7CB
:1037C00019FF0546694B1B6813F0020F61D1FEF724
:1037D00011FF401B0228F5D9032094E1634B5B687D
:1037E00013F4800FA0D0C6E7604A136843F4803317
:1037F0001360A9E75D4B1A6842F480221A601A68C8
:1038000042F480321A609FE7FEF7F4FE0546574BFC
:103810001B6813F4003FB7D0FEF7ECFE401B642892
:10382000F5D903206FE1514B5B6813F4800FBAD1D7
:103830004E4B1B6813F0020F03D0E368012B40F0DE
:103840005F814A4A136823F0F803216943EAC10300
:103850001360236813F0080F49D06369002B33D03D
:10386000434B0122C3F8802EFEF7C4FE05463F4BB2
:103870005B6F13F0020F3AD1FEF7BCFE401B02282B
:10388000F5D903203FE1394B5B6813F4800F90D1E9
:10389000CEE7364A136823F0F803216943EAC103EF
:1038A0001360D6E7324B00221A60FEF7A3FE0546EE
:1038B0002E4B1B6813F0020FCBD0FEF79BFE401B74
:1038C0000228F5D903201EE1294B0022C3F8802EDF
:1038D000FEF790FE0546254B5B6F13F0020F06D0F6
:1038E000FEF788FE401B0228F5D903200BE1236870
:1038F00013F0040F76D01D4B1B6C13F0805F33D197
:1039000000230193194B1A6C42F080521A641B6C0D
:1039100003F080530193019B0125164B1B6813F4A0
:10392000807F29D0A368012B3AD0052B3ED00F4BC6
:103930001A6F22F001021A671A6F22F004021A6746
:10394000A368002B3CD0FEF755FE0646074B1B6FC5
:1039500013F0020F45D1FEF74DFE801B41F2883374
:103960009842F3D90320CEE00025D6E70038024084
:1039700000004742007000406B4A136843F48073B4
:103980001360FEF737FE0646674B1B6813F4807F13
:10399000C8D1FEF72FFE801B0228F5D90320B2E024
:1039A000624A136F43F001031367C9E75F4B1A6F55
:1039B00042F004021A671A6F42F001021A67BFE769
:1039C000FEF718FE0646594B1B6F13F0020F08D086
:1039D000FEF710FE801B41F288339842F3D9032092
:1039E00091E0EDB9A369002B00F08C804F4A9268FA
:1039F00002F00C02082A54D0022B17D04C4B0022A4
:103A00001A66FEF7F7FD0446484B1B6813F0007F6B
:103A100045D0FEF7EFFD001B0228F5D9032072E028
:103A2000424A136C23F080531364DBE7404B0022BF
:103A30001A66FEF7DFFD05463C4B1B6813F0007F5E
:103A400006D0FEF7D7FD401B0228F5D903205AE027
:103A5000E369226A1343626A43EA8213A26A520844
:103A6000013A43EA0243E26A43EA0263226B43EA11
:103A700002732E4A53602E4B01221A66FEF7BAFDDE
:103A800004462A4B1B6813F0007F06D1FEF7B2FDF7
:103A9000001B0228F5D9032035E0002033E0002088
:103AA00031E0012B31D0214B5B6803F48001E269E6
:103AB00091422CD103F03F02216A8A4229D1616AE6
:103AC00047F6C0721A40B2EB811F24D103F4403193
:103AD000A26A5208013AB1EB024F1ED103F07062A4
:103AE000E16AB2EB016F1AD103F0E043226BB3EB52
:103AF000027F16D1002006E001207047012002E07D
:103B0000012000E0002002B070BD0120FBE7012091
:103B1000F9E70120F7E70120F5E70120F3E70120AD
:103B2000F1E70120EFE700BF0070004000380240DD
:103B3000000047422DE9F04782B005468846174607
:103B40001E46FEF757FD0A9B1B1A03EB0609FEF7FC
:103B500051FD8246284B1B68C3F3CB3309FB03F3AB
:103B600001932B689C6838EA04040CBF01230023EE
:103B7000BB423DD0B6F1FF3FF3D0FEF73BFDA0EBDB
:103B80000A00484507D2019A02B14A46019B013B0F
:103B900001939146E5E72A68536823F0E0035360F8
:103BA0006B68B3F5827F0BD0AB6AB3F5005F14D0BE
:103BB000012385F85130002385F85030032018E0A8
:103BC000AB68B3F5004F02D0B3F5806FECD12A6833
:103BD000136823F040031360E6E72A68136823F4B0
:103BE000005313602A68136843F400531360DFE73F
:103BF000002002B0BDE8F087A803002070B584B0B3
:103C000004460D46164600920B4601220221FFF79C
:103C100091FFD0B9174B1B68174AA2FB03235B0D1A
:103C20004FF47A7202FB03F303936368B3F5827F68
:103C300011D0039B3BB1039B013B039323689B681B
:103C400013F0800FF5D104B070BD636D43F0200315
:103C500063650320F7E700962B460022802120466B
:103C6000FFF768FF0028EED0636D43F02003636523
:103C70000320E8E7A8030020819F5E1600285AD0A1
:103C800010B50446436A33B94368B3F5827F05D063
:103C90000023C36102E00023036143610023A362A8
:103CA00094F85130002B40D0022384F85130226820
:103CB000136823F040031360636803F48273A268FF
:103CC00002F404421343E26802F4006213432269DF
:103CD00002F002021343626902F001021343A26977
:103CE00002F400721343E26902F038021343226ABD
:103CF00002F080021343A26A02F4005221681343C7
:103D00000B60638B03F00403626A02F01002216807
:103D100013434B602268D36923F40063D36100200E
:103D20006065012384F8513010BD84F8503020467E
:103D3000FEF76AF9B8E7012070472DE9F04383B038
:103D40001D4690F85030012B00F0D1800446884683
:103D50009146012380F85030FEF74CFC074694F85A
:103D60005160F6B2012E40F0BA80B8F1000F00F0B9
:103D7000B780B9F1000F00F0B380032384F851300D
:103D800000236365C4F83080A4F83490A4F836901A
:103D9000A363A387E38763642364A368B3F5004F39
:103DA0001ED023681A6812F0400F03D11A6842F03F
:103DB00040021A60E368B3F5006F1CD0636813B16A
:103DC000B9F1010F55D1226B236812781A73236B56
:103DD00001332363E38E9BB2013B9BB2E38648E051
:103DE0002268136823F0400313602268136843F4C9
:103DF00080431360D5E7636813B1B9F1010F15D1A2
:103E0000226B23681288DA60236B02332363E38E0C
:103E10009BB2013B9BB2E38608E0FEF7EBFBC01BC5
:103E2000A84202D3B5F1FF3F15D1A5B1E38E9BB2F5
:103E3000002B3CD023689A6812F0020FEDD0226B61
:103E40001288DA60236B02332363E38E9BB2013B5B
:103E50009BB2E386EAE7012384F8513003263FE072
:103E6000FEF7C8FBC01BA84202D3B5F1FF3F19D132
:103E7000C5B1E38E9BB2D3B123689A6812F0020FEA
:103E8000EED0226B12781A73236B01332363B4F8DC
:103E900036C01FFA8CFC0CF1FF3C1FFA8CFCA4F816
:103EA00036C0E6E7012384F85130032618E03A468D
:103EB00029462046FFF7A2FE08B120236365A368C8
:103EC00033B901932368DA6801929B680193019BDF
:103ED000636D2BB9012384F85130002600E00226DF
:103EE000002384F85030304603B0BDE8F08302264A
:103EF000F9E7000030B4036A026A22F001020262AC
:103F00004268846924F0730C0C6844EA0C0423F0C2
:103F1000020C8B6843EA0C03114DA84203D005F54F
:103F20008065A84205D123F00803CD682B4323F018
:103F300004030B4DA84203D005F58065A84207D1C4
:103F400022F440724D6945EA020C8A6942EA0C0289
:103F5000426084614A684263036230BC704700BFBC
:103F60000000014030B4036A026A22F480720262E7
:103F70004268C46924F0730C0C6844EA0C0523F40D
:103F800000738C6843EA0423114CA04203D004F56B
:103F90008064A04206D123F40063CC6843EA042382
:103FA00023F480630A4CA04203D004F58064A0424D
:103FB00007D122F440524C6942EA04128C6942EA69
:103FC00004124260C5614A68C263036230BC704734
:103FD0000000014030B4036A026A22F48052026297
:103FE0004468C26922F4E6420D6842EA052223F4DD
:103FF00000538D6843EA0533094DA84203D005F507
:104000008065A84204D124F480444D6944EA8514B3
:104010004460C2614A680264036230BC704700BFFA
:104020000000014010B4036A046A24F00104046231
:10403000846924F0F00C4CEA021223F00A030B43CB
:10404000826103625DF8044B704710B4036A046A2E
:1040500024F010040462846924F4704C4CEA0232A7
:1040600023F0A00343EA0113826103625DF8044B6D
:104070007047836823F070030B4343F007038360AA
:104080007047000090F83D30DBB2012B37D102239E
:1040900080F83D300268D36843F00103D3600368C1
:1040A000194A934220D0B3F1804F1DD0A2F57C4233
:1040B000934219D002F58062934215D002F58062D6
:1040C000934211D002F5784293420DD002F570521E
:1040D000934209D0A2F59432934205D01A6842F077
:1040E00001021A60002070479A6802F00702062A4F
:1040F00007D01A6842F001021A60002070470120C0
:1041000070470020704700BF0000014070477047B3
:1041100070477047704770B504460368DE681D69D4
:1041200015F0020F10D016F0020F0DD06FF0020242
:104130001A610123037703689B6913F0030F5ED0B4
:10414000FFF7E6FF0023237715F0040F12D016F0D7
:10415000040F0FD023686FF004021A610223237743
:1041600023689B6913F4407F4FD02046FFF7D0FFB0
:104170000023237715F0080F12D016F0080F0FD088
:1041800023686FF008021A61042323772368DB6930
:1041900013F0030F40D02046FFF7BAFF0023237728
:1041A00015F0100F12D016F0100F0FD023686FF01B
:1041B00010021A61082323772368DB6913F4407F18
:1041C00031D02046FFF7A4FF0023237715F0010F1D
:1041D00002D016F0010F2DD115F0800F02D016F08D
:1041E000800F2FD115F0400F02D016F0400F31D1C3
:1041F00015F0200F02D016F0200F33D170BDFFF75D
:1042000086FF2046FFF785FF9CE72046FFF77FFFEC
:104210002046FFF77EFFABE72046FFF778FF2046FA
:10422000FFF777FFBAE72046FFF771FF2046FFF759
:1042300070FFC9E723686FF001021A612046FDF79D
:10424000B3F8C9E723686FF080021A61204600F0D6
:1042500048FCC7E723686FF040021A612046FFF769
:1042600059FFC5E723686FF020021A61204600F06D
:1042700037FCC3E70368344A904212D0B0F1804F54
:104280000FD0A2F57C4290420BD002F580629042A2
:1042900007D002F58062904203D002F57842904246
:1042A00003D123F070034A681343274A90422AD06F
:1042B000B0F1804F27D0A2F57C42904223D002F586
:1042C000806290421FD002F5806290421BD002F5BE
:1042D0007842904217D002F57052904213D002F506
:1042E000806290420FD002F5806290420BD0A2F51E
:1042F0009832904207D002F58062904203D002F5D6
:104300008062904203D123F44073CA68134323F0C0
:1043100080034A69134303608B68C3620B6883623E
:10432000094B984203D003F58063984201D10B6991
:10433000036301234361036913F0010F03D0036991
:1043400023F00103036170470000014040B310B542
:10435000044690F83D30F3B1022384F83D30214605
:1043600051F8040BFFF786FF012384F8463084F8E8
:104370003E3084F83F3084F8403084F8413084F88F
:10438000423084F8433084F8443084F8453084F86F
:104390003D30002010BD80F83C30FDF713FFDBE717
:1043A0000120704740B310B5044690F83D30F3B19A
:1043B000022384F83D30214651F8040BFFF75AFFE1
:1043C000012384F8463084F83E3084F83F3084F886
:1043D000403084F8413084F8423084F8433084F827
:1043E000443084F8453084F83D30002010BD80F81A
:1043F0003C30FFF78BFEDBE70120704740B310B580
:10440000044690F83D30F3B1022384F83D30214654
:1044100051F8040BFFF72EFF012384F8463084F88F
:104420003E3084F83F3084F8403084F8413084F8DE
:10443000423084F8433084F8443084F8453084F8BE
:104440003D30002010BD80F83C30FDF70BFFDBE76E
:104450000120704730B4036A026A22F0100202623F
:104460004468826922F4E6420D6842EA052223F09C
:1044700020038D6843EA0513114DA84203D005F5CA
:104480008065A84206D123F08003CD6843EA051376
:1044900023F040030A4DA84203D005F58065A842E9
:1044A00007D124F440644D6944EA85048D6944EAE7
:1044B0008504446082614A688263036230BC70474D
:1044C0000000014090F83C30012B28D010B5044684
:1044D000012380F83C300C2A1CD8DFE802F0071BCF
:1044E0001B1B0C1B1B1B111B1B1B16000068FFF763
:1044F00001FD00200FE00068FFF7ACFF00200AE09C
:104500000068FFF72FFD002005E00068FFF762FD5F
:10451000002000E00120002384F83C3010BD022080
:10452000704738B590F83C30012B66D004460D46F4
:10453000012380F83C300C2A5AD8DFE802F00759F2
:1045400059591B5959593059595944000068FFF7B6
:10455000D1FC2268936943F0080393612268936950
:1045600023F0040393612268936929690B439361E3
:1045700000203EE00068FFF76DFF2268936943F476
:10458000006393612268936923F4806393612268D6
:104590009369296943EA01239361002029E00068B7
:1045A000FFF7E0FC2268D36943F00803D361226877
:1045B000D36923F00403D3612268D36929690B43CB
:1045C000D361002015E00068FFF704FD2268D3697D
:1045D00043F40063D3612268D36923F48063D36119
:1045E0002268D369296943EA0123D361002000E0EE
:1045F0000120002384F83C3038BD0220FCE710B4D1
:10460000846824F47F4C42EA03220A4342EA0C0203
:1046100082605DF8044B704790F83C30012B78D0F5
:1046200010B50446012380F83C30022380F83D3069
:104630000268936823F47F4323F0770393600B6849
:10464000602B4CD023D8402B54D011D8202B03D032
:104650000AD80BB1102B05D119462068FFF709FDC8
:10466000002028E0012026E0302BF5D0012022E0B8
:10467000502B0AD1CA6849680068FFF7D3FC502163
:104680002068FFF7F6FC002015E0012013E0B3F5E9
:10469000805F3AD0B3F5005F14D0702B37D1CB6870
:1046A0004A6889680068FFF7AAFF2268936843F0A8
:1046B000770393600020012384F83D30002384F8C1
:1046C0003C3010BDCB684A6889680068FFF797FFE7
:1046D0002268936843F4804393600020EBE7CA6844
:1046E00049680068FFF7B1FC60212068FFF7C1FC52
:1046F0000020E0E7CA6849680068FFF793FC4021A2
:104700002068FFF7B6FC0020D5E70020D3E70120A2
:10471000D1E70220704701F01F014FF0010C0CFAA5
:1047200001FC036A23EA0C030362036A8A40134311
:104730000362704710B504460846002942D194F838
:104740003E30DBB2013B18BF0123002B6ED10028A5
:1047500051D1022384F83E30012201462068FFF740
:10476000DAFF2368334A934203D002F58062934212
:1047700003D15A6C42F400425A6423682D4A934292
:1047800049D0B3F1804F46D0A2F57C42934242D04B
:1047900002F5806293423ED002F5806293423AD0A5
:1047A00002F57842934236D002F57052934232D0ED
:1047B000A2F5943293422ED01A6842F001021A6098
:1047C000002032E0042908D008290DD094F84130A7
:1047D000DBB2013B18BF0123B7E794F83F30DBB2EF
:1047E000013B18BF0123B0E794F84030DBB2013B36
:1047F00018BF0123A9E7042805D0082807D0022301
:1048000084F84130A8E7022384F83F30A4E702236C
:1048100084F84030A0E79A6802F00702062A07D021
:104820001A6842F001021A60002010BD0120FCE766
:104830000020FAE70000014038B504460D4600228A
:104840000068FFF768FF23681D4A934218D002F5FD
:104850008062934214D02368196A41F21112114206
:1048600008D1196A40F24442114203D11A6822F079
:1048700001021A609DB9012384F83E30002038BD42
:10488000196A41F211121142E5D1196A40F244420B
:104890001142E0D15A6C22F400425A64DBE7042D45
:1048A00005D0082D07D0012384F84130E6E7012325
:1048B00084F83F30E2E7012384F84030DEE700BFB0
:1048C0000000014010B504460846002942D194F882
:1048D0003E30DBB2013B18BF0123002B6ED1002814
:1048E00051D1022384F83E30012201462068FFF7AF
:1048F00012FF2368334A934203D002F58062934249
:1049000003D15A6C42F400425A6423682D4A934200
:1049100049D0B3F1804F46D0A2F57C42934242D0B9
:1049200002F5806293423ED002F5806293423AD013
:1049300002F57842934236D002F57052934232D05B
:10494000A2F5943293422ED01A6842F001021A6006
:10495000002032E0042908D008290DD094F8413015
:10496000DBB2013B18BF0123B7E794F83F30DBB25D
:10497000013B18BF0123B0E794F84030DBB2013BA4
:1049800018BF0123A9E7042805D0082807D002236F
:1049900084F84130A8E7022384F83F30A4E70223DB
:1049A00084F84030A0E79A6802F00702062A07D090
:1049B0001A6842F001021A60002010BD0120FCE7D5
:1049C0000020FAE70000014038B504460D460022F9
:1049D0000068FFF7A0FE23681D4A934218D002F535
:1049E0008062934214D02368196A41F21112114275
:1049F00008D1196A40F24442114203D11A6822F0E8
:104A000001021A609DB9012384F83E30002038BDB0
:104A1000196A41F211121142E5D1196A40F2444279
:104A20001142E0D15A6C22F400425A64DBE7042DB3
:104A300005D0082D07D0012384F84130E6E7012393
:104A400084F83F30E2E7012384F84030DEE700BF1E
:104A50000000014090F83C20012A3DD010B40346EC
:104A6000012280F83C20022280F83D200268506834
:104A7000946820F0700C086840EA0C0050601A68D6
:104A8000164882421AD0B2F1804F17D0A0F57C4070
:104A9000824213D000F5806082420FD000F5806022
:104AA00082420BD000F57840824207D000F570506A
:104AB000824203D0A0F59430824204D124F08004D5
:104AC000496821439160012283F83D20002083F84A
:104AD0003C005DF8044B7047022070470000014025
:104AE00070477047026802F10C0353E8003F23F45B
:104AF00090730C3242E800310029F3D1026802F1D0
:104B0000140353E8003F23F00103143242E800315C
:104B10000029F3D1036B012B05D0202380F842300C
:104B2000002303637047026802F10C0353E8003F5F
:104B300023F010030C3242E800310029F3D1ECE7F6
:104B400090F84130DBB2212B01D0022070478368FE
:104B5000B3F5805F17D0036A5A1C02621A780368A3
:104B60005A60C38C9BB2013B9BB2C3844BB90268B1
:104B7000D36823F08003D3600268D36843F0400316
:104B8000D360002070470369002BE4D1036A1B88BF
:104B90000268C3F308035360036A02330362E0E769
:104BA00010B504460268136923F44053C1680B43EF
:104BB0001361836802691A4343691A43C3691A433C
:104BC0000168CB6823F4164323F00C031343CB6036
:104BD0000268536923F4407381690B43536103688E
:104BE000314A934206D002F58062934202D0FEF72A
:104BF000CBFC01E0FEF7D8FCE369B3F5004F29D008
:104C00000021031849411B1841F10001C90041EA84
:104C10005371DB00181863684FEA83024FEA9373FD
:104C200041F10001FBF73AFE204AA2FB003149099D
:104C3000642303FB11031B013233A2FB03235B0933
:104C400003F0F00202EB011203F00F03216813449A
:104C50008B6010BD0023021843EB0301121841F1D1
:104C60000001C90041EA5271D200101841F100015F
:104C7000626892185B41FBF711FE0C4AA2FB0031FF
:104C80004909642303FB1103DB003233A2FB032336
:104C90005B095A0002F4F87202EB011203F00703F9
:104CA000216813448B60D4E7001001401F85EB514D
:104CB0002DE9F04383B005460E4617469946DDF8C8
:104CC00028802B681C6836EA04040CBF01240024E9
:104CD000BC4228D1B8F1FF3FF3D0FDF78BFCA0EB2D
:104CE0000900404523D8B8F1000F22D02B68DA68BC
:104CF00012F0040FE5D0802EE3D0402EE1D01A68E8
:104D000012F0080FDDD0002401941A6801925B684C
:104D10000193019B2846FFF7E5FE08236B6485F8A5
:104D20004040012000E0002003B0BDE8F0830320F4
:104D3000FAE70320F8E760B310B5044690F8413075
:104D400013B3242384F841302268D36823F400533A
:104D5000D3602046FFF724FF2268136923F49043B1
:104D600013612268536923F02A0353612268D368D0
:104D700043F40053D36000206064202384F8413062
:104D800084F84230606310BD80F84030FDF788FB46
:104D9000D7E7012070472DE9F04182B01E4690F818
:104DA0004130DBB2202B56D104460D4690460029F7
:104DB00055D00AB901204FE000234364212380F835
:104DC0004130FDF717FC0746A4F82480A4F826809C
:104DD000A368B3F5805F02D04FF0000814E02369A8
:104DE0002BB34FF000080FE0202384F8413003205C
:104DF00032E038F8023B2268C3F308035360E28CC8
:104E000092B2013A92B2E284E38C9BB293B10096E3
:104E10003B46002280212046FFF74AFF0028E3D1CD
:104E2000002DE6D015F8012B23685A60E7E7A84665
:104E30000025E9E700963B46002240212046FFF787
:104E400037FF18B9202384F8413005E0202384F887
:104E50004130032000E0022002B0BDE8F0810120D3
:104E6000FAE7704708B50168CA6822F04002CA60D4
:104E7000202280F84120FFF7F4FF002008BD704792
:104E8000704708B5806B0023C385C384FFF7F8FF24
:104E900008BD704790F84230DBB2222B69D183689D
:104EA000B3F5805F4FD0826AB3F5805F04D0002BEA
:104EB00056D10369002B53D103685B681370836A72
:104EC00001338362C38D9BB2013B9BB2C385002B30
:104ED00051D100B583B00268D36823F02003D360BA
:104EE0000268D36823F48073D3600268536923F0A7
:104EF00001035361202380F8423000234363036B96
:104F0000012B33D100230363026802F10C0353E841
:104F1000003F23F010030C3242E800310029F3D1A6
:104F200003681A6812F0100F06D0002201921A6866
:104F300001925B680193019B818DFFF7AAFF00201E
:104F400003B05DF804FB0269002AACD1826A0368F1
:104F50005B68C3F308031380836A02338362B1E79B
:104F600003685B6803F07F031370A8E7FFF787FF10
:104F7000E5E70220704700207047000010B582B0BE
:104F8000044602681368D068516913F00F0F09D105
:104F900013F0200F0CD010F0200F09D02046FFF79F
:104FA00079FF16E011F0010115D110F4907F12D1B4
:104FB000216B012979D013F0800F03D010F0800FFE
:104FC00040F0148113F0400F03D010F0400F40F078
:104FD000118102B010BD13F0010F06D010F4807FD4
:104FE00003D0626C42F00102626413F0040F04D03B
:104FF00019B1626C42F00202626413F0020F04D035
:1050000019B1626C42F00402626413F0080F07D019
:1050100010F0200F00D119B1626C42F008026264F6
:10502000626C002AD5D013F0200F02D010F0200FB0
:1050300029D123685B6903F04003626C12F0080F0A
:1050400000D163B32046FFF74DFD23685B6913F081
:10505000400F20D0226802F1140353E8003F23F0F0
:105060004003143242E800310029F3D1E36B73B1FD
:10507000624A1A65E06BFDF77EFF0028A9D0E06B5D
:10508000036D9847A5E72046FFF704FFD1E72046C8
:10509000FFF7F6FE9DE72046FFF7F2FE99E7204670
:1050A000FFF7EEFE0023636493E713F0100F82D046
:1050B00010F0100F3FF47FAF0023019313680193AA
:1050C00053680193019B536913F0400F52D0E26B78
:1050D00013685B689BB2002B3FF47BAFA18D9942B4
:1050E0007FF677AFE385D369B3F5807F37D0226849
:1050F00002F10C0353E8003F23F480730C3242E8C2
:1051000000310029F3D1226802F1140353E8003F73
:1051100023F00103143242E800310029F3D1226860
:1051200002F1140353E8003F23F04003143242E835
:1051300000310029F3D1202384F842300023236377
:10514000226802F10C0353E8003F23F010030C32F5
:1051500042E800310029F3D1E06BFDF7C2FE0223E3
:105160006363A18DE38D9BB2C91A89B22046FFF714
:1051700090FE2EE7A18DE38D9BB2C91A89B2E38D13
:105180009BB2002B3FF425AF00293FF422AF2268E9
:1051900002F10C0353E8003F23F490730C3242E811
:1051A00000300028F3D1226802F1140353E8003FD5
:1051B00023F00103143242E800300028F3D1202309
:1051C00084F8423000232363226802F10C0353E881
:1051D000003F23F010030C3242E800300028F3D1E6
:1051E000022363632046FFF754FEF2E62046FFF7F2
:1051F000A7FCEEE62046FFF735FEEAE6834E000800
:10520000DFF834D0FCF7ACFF0C480D490D4A002301
:1052100002E0D458C4500433C4188C42F9D30A4A6B
:105220000A4C002301E013600432A242FBD300F0D9
:105230003FF8FCF725F9704700000220000000202D
:10524000040400207069000804040020580B0020AA
:10525000FEE700000EB400B59CB01DAB02900690B6
:105260006FF00041094807910491094953F8042B54
:1052700005910068019302A900F094F9029B0022B5
:105280001A701CB05DF804EB03B07047B403002043
:105290000802FFFF02440346934200D1704703F81F
:1052A000011BF9E7014B1868704700BFB4030020E9
:1052B00070B50D4D0D4C641BA4100026A64209D1FB
:1052C0000B4D0C4C00F0C2FD641BA4100026A6423E
:1052D00005D170BD55F8043B98470136EEE755F807
:1052E000043B98470136F2E76869000868690008DE
:1052F000686900086C6900087047704738B5054652
:10530000002941D051F8043C0C1F002BB8BFE41811
:1053100000F0E0F81D4A136833B963601460284652
:10532000BDE8384000F0DCB8A34208D92068211855
:105330008B4201BF19685B6809182160EDE71A46C6
:105340005B680BB1A342FAD911685018A0420BD187
:1053500020680144501883421160E0D118685B68EE
:10536000536008441060DAE702D90C232B60D6E7BB
:10537000206821188B4204BF19685B68636004BF12
:10538000091821605460CAE738BD00BF540B0020E3
:1053900070B50F4E0C463168054611B900F0A4FBFC
:1053A00030602146284600F09FFB431C03D14FF09C
:1053B000FF34204670BDC41C24F00304A042F8D082
:1053C000211A284600F090FB0130F2D1EFE700BF30
:1053D000500B00202DE9F843CD1C25F003050835BE
:1053E0000C2D38BF0C25002D064601DBA94204D93F
:1053F0000C2333600020BDE8F883DFF8D48000F090
:1054000069F8D8F800301C4644BB29463046FFF7FF
:10541000BFFF431C044658D1D8F800402746002F50
:1054200043D1002C4BD023683946304604EB0309A6
:1054300000F05AFB814542D121686D1A2946304659
:10544000FFF7A6FF01303AD023682B442360D8F839
:1054500000305A6862BBC8F800700FE02268521B27
:1054600020D40B2A17D96119A342256018BF5960AF
:10547000636808BFC8F8001062514B60304600F006
:105480002FF804F10B00231D20F00700C21A1CBFE7
:105490001B1AA350AFE76268A3420CBFC8F80020F4
:1054A0005A60EBE723466468AEE73C467F68B6E7A0
:1054B0001A465B68A342FBD100235360DEE70C234E
:1054C0003360304600F00CF894E70560D6E700BF83
:1054D000540B00200148FFF70FBF00BF4C0B00200A
:1054E0000148FFF70ABF00BF4C0B00202DE9F04731
:1054F0008E681F46BE420B6882460C4690462DD8E9
:10550000B1F90C2012F4906F26D06569096905EB9A
:105510004505A3EB010905EBD5757B1C4B446D10CC
:105520009D4238BF1D46530527D52946FFF752FF38
:10553000064660B321694A4600F0E6FAA38923F4DF
:10554000906343F08003A381266165614E44A5EB1F
:1055500009052660A5603E46BE4200D93E46206849
:105560003246414600F0A6FAA3689B1BA36023685D
:10557000334423600020BDE8F0872A4600F0D2FAC9
:1055800006460028E0D121695046FFF7B7FE0C23FC
:10559000CAF80030A38943F04003A3814FF0FF30E5
:1055A000E9E700002DE9F04F98468B891B069DB076
:1055B00007460D46144610D50B6973B94021FFF715
:1055C00009FF2860286130B90C233B604FF0FF30A1
:1055D0001DB0BDE8F08F40236B61002309932023A9
:1055E0008DF82930CDF80C803023DFF89C818DF8C0
:1055F0002A304FF0010923469A4613F8012B0AB1CD
:10560000252AF9D1BAEB040B0BD05B46224629467A
:105610003846FFF76BFF013000F0A780099A5A4423
:1056200009929AF80030002B00F09F8000234FF081
:10563000FF32CDE905230AF1010A049307938DF89F
:1056400053301A935446052214F8011B4E48FAF7BA
:10565000C7FD049AD8B9D00644BF20238DF8533033
:10566000110744BF2B238DF853309AF800302A2BB2
:1056700015D0079A544600204FF00A0C214611F825
:10568000013B303B092B4BD9B0B1079214E0A0EBA2
:10569000080309FA03F313430493A246D2E7039BDA
:1056A000191D1B680391002BBBBF5B4242F0020235
:1056B00007930793B8BF049223782E2B0AD16378FF
:1056C0002A2B32D1039B1A1D1B68039243EAE37312
:1056D00002340593DFF8C0A0217803225046FAF780
:1056E0007FFD38B1049BA0EB0A00402282401343A7
:1056F0000134049314F8011B24488DF82810062265
:10570000FAF76EFD002836D0214B1BBB039B0733F5
:1057100023F0070308330393099B334409936AE793
:105720000CFB02320C460120A8E70023013405934C
:1057300019464FF00A0C204610F8012B303A092A7E
:1057400003D9002BC6D00591C4E70CFB0121044608
:105750000123F0E703AB00932A460E4B04A9384619
:10576000AFF30080421C0646D6D1AB895B063FF5FD
:105770002DAF09982CE703AB00932A46054B04A9EB
:10578000384600F079F8EDE72C6900083669000822
:1057900000000000ED540008326900082DE9F047D0
:1057A000164698468A680B69DDF820909342B8BF88
:1057B0001346336091F8432007460C460AB1013383
:1057C00033602368990642BF33680233336025682B
:1057D00015F0060506D104F1190AE36832689B1A30
:1057E000AB4226DC94F843302268003B18BF01230B
:1057F00092062BD404F1430241463846C847013093
:105800001ED02368226903F00603042B02BFE5685B
:105810003368ED1AA3680CBF25EAE57500259342AD
:10582000C4BF9B1AED1800261A34B5421AD10020C5
:1058300008E00123524641463846C847013003D1AB
:105840004FF0FF30BDE8F0870135C6E7E1185A1C7C
:10585000302081F84300224494F8451082F8431028
:105860000233C7E70123224641463846C847013084
:10587000E6D00136D9E700002DE9FF470F7E0C9EE8
:10588000782F914680460C469A4601F1430207D88C
:10589000622F0AD8002F00F0D180582F00F0B88076
:1058A00004F1420684F842703AE0A7F16303152B35
:1058B000F6D801A151F823F0115900082559000824
:1058C000A1580008A1580008A1580008A1580008D4
:1058D00025590008A1580008A1580008A15800083F
:1058E000A1580008235A00084F590008DD59000844
:1058F000A1580008A1580008455A0008A1580008FE
:105900004F590008A1580008A1580008E55900089F
:1059100033681A1D1B68326004F1420684F8423075
:1059200001239CE033682068191D3160060601D50B
:105930001D6803E04506FBD5B3F90050002D03DADE
:105940002D236D4284F8433058480A2311E0216822
:105950003368080653F8045B02D4490648BFADB269
:105960006F2F5248336014BF0A230823002184F8A4
:1059700043106668A660002E05DB21682E4321F0E7
:10598000040121604BD01646B5FBF3F103FB115720
:10599000C75D06F8017D2F46BB420D46F4D9082BA2
:1059A0000BD12368DF0708D5236961689942DEBF00
:1059B000302306F8013C06F1FF36921B2261CDF838
:1059C00000A04B4603AA21464046FFF7E7FE013000
:1059D0004AD14FF0FF3004B0BDE8F087236843F0B0
:1059E000200323603248782784F8457023683168A3
:1059F0001F0651F8045B02D45F0648BFADB23160A8
:105A0000D90744BF43F0200323601DB11023ADE745
:105A10002648E9E7236823F020032360F6E71646CB
:105A2000BDE7336825686169181D30602E061B6864
:105A300001D5196002E06806FBD5198000232361B7
:105A40001646BCE733681A1D32601E686268002182
:105A50003046FAF7C5FB08B1801B606063682361BC
:105A6000002384F84330AAE723693246494640467A
:105A7000D0470130ADD023689B0713D4E068039B67
:105A80009842B8BF1846A6E7012332464946404629
:105A9000D04701309DD00135E36803995B1AAB42D2
:105AA000F2DCEBE7002504F11906F5E73D69000893
:105AB0004E690008884210B501EB020402D9844205
:105AC000234607D8431EA14208D011F8012B03F842
:105AD000012FF8E7024401468A4200D110BD13F8B5
